:1000000042C0CEC15BC05AC059C058C057C056C0CC
:1000100055C054C053C052C051C050C04FC004035B
:1000200009040E035700610069006E00650073004B
:100030000C0355005300520047004200120110010A
:10004000FF000008C016DF050002010200010902DE
:1000500022000101008014090400000103000000D7
:10006000092101010001221600070581030800642F
:100070000600FF0901A101150026FF007508950182
:100080000900B20201C011241FBECFE5D2E0DEBFDD
:10009000CDBF10E0A0E6B0E0E6EEF7E002C00590CC
:1000A0000D92A236B107D9F710E0A2E6B0E001C088
:1000B0001D92A23AB107E1F718D393C3A1CF85B738
:1000C000826085BF8BB780648BBF8BE480937700A1
:1000D0008AE58093760008951F93DC01162F8091A6
:1000E000760084FF07C08091770098E88927809385
:1000F000770003C08AE580937600912FE8E7F0E06F
:100100008D91819391501916DCF388E790E0612F6F
:1001100030D11C5F109376001F9108951F93CF93E9
:10012000DF9390918800935097FDA6C020918400A2
:10013000809183008D3209F09DC0983009F09AC0FB
:10014000CCE0D0E0C21BD109C457DF4F83EC8093D1
:100150006B008AE58093600010926300888180764E
:1001600021F0CE0180D2282F7CC09A811092740099
:100170008981882321F41092750022E06CC08530BB
:1001800019F49093890066C0863009F04FC08B81C6
:10019000813041F48CE390E0909387008093860057
:1001A00022E140C0823041F48EE490E090938700D9
:1001B0008093860022E236C08330F9F48A81882356
:1001C00041F48EE190E0909387008093860024E0D4
:1001D00029C0813041F482E290E0909387008093BF
:1001E00086002EE01FC08230E1F480E390E090931F
:1001F0008700809386002CE015C0813241F480E6B0
:1002000090E0909387008093860029E00BC08232B3
:1002100041F480E790E0909387008093860026E188
:1002200001C020E080E4809363001BC0883021F48B
:1002300021E08BE890E011C0893019F490938B0095
:1002400009C08A3011F421E006C08B3019F48BE428
:100250008093770020E084E790E09093870080937C
:1002600086008F81882321F48E81821708F4282F3D
:1002700020936100109288008091600084FF49C043
:10028000809161008F3F09F444C0182F893008F035
:1002900018E0811B8093610080916B0098E88927AA
:1002A00080936B00112341F12091860030918700EB
:1002B0008091630086FF0DC0ACE6B0E080E090E086
:1002C000F901E80FF91FE491ED9301961817C1F7B2
:1002D00008C0912FD901ECE6F0E08D918193915007
:1002E000E1F71150812F90E01F5F0196820F931F5D
:1002F00090938700809386008CE690E0612F39D040
:10030000612F6C5F6C3019F08FEF80936100609308
:10031000600094E186B3857031F49150D9F7109262
:1003200089001092820010E0992309F411E0809175
:100330006200811729F0112309F4F5D110936200AE
:10034000DF91CF911F910895A82FB92F80E090E001
:1003500041E050EA609530E009C02D9182279795E1
:10036000879510F084279527305EC8F36F5FA8F358
:100370000895EADF8D939D930895A6E08827992735
:10038000AA9569F00197E1F3B099FCCFB09BFECF3D
:1003900081E09927A6B3019611F0A570D9F70895C9
:1003A000CF93CFB7CF93C395B09BE9F7B09B10C065
:1003B000B09B0EC0B09B0CC0B09B0AC0B09B08C0E5
:1003C000B09B06C0C0918500C395C0938500D5C081
:1003D0000F92DF93C0918400DD27C457DF4F012EB9
:1003E000B09B03C0DF910F90E1CF2F930F931F932A
:1003F0004F932FEF4F6F06B300FB20F95F933F93AE
:1004000050E03BE065C016B30126502950FDC89569
:1004100056B3012700FB25F92F7306B3B1F050271F
:10042000102710FB26F906B22230F0F000C016B3F8
:10043000012700FB27F90126502906B22430E8F5F0
:100440004F77206816B30000F6CF50274F7D20620B
:1004500006B2102F000000C006B300265029102756
:1004600010FB26F906B2E2CF4F7B06B3206400C032
:10047000DACF01265029157006B269F14E7F21604E
:10048000012F16B328C0002650294D7F06B22260E6
:10049000102F29C0012650294B7F06B22460012F5E
:1004A0002DC016B301265029477F2860000006B2F0
:1004B0002EC04F7E06B3206130C0422706B3499359
:1004C00000265029102706B24FEF10FB20F9297F94
:1004D00016B379F2157059F10126502906B2012799
:1004E00000FB21F9237F06B371F200265029315019
:1004F000D0F006B2102710FB22F9277E16B351F276
:1005000001265029012700FB06B223F92F7C49F26E
:10051000000006B3102710FB24F90026502906B26C
:100520002F7939F270CF10E41ABF002719C03B5061
:100530003195C31BD04010E41ABF0881033C09F178
:100540000B34F9F0209182001981110F1213EDCFB5
:100550004A81441F093651F10D3211F0013E29F74D
:1005600000938A003F915F914F911F910F912F91BE
:10057000DF910F90CAB7C6FD16CFCF91CFBFCF91F5
:10058000189520918A00222369F310918800112385
:1005900079F534307AF130938800209383001091FC
:1005A00084003BE0311B3093840024C0009188001C
:1005B0000130F4F40AE54F7049F43091600034FDE5
:1005C0001AC000936000CBE6D0E019C030917600ED
:1005D00034FD11C000937600C7E7D0E010C00527B6
:1005E00010E000C021C0052710E0C89508BB14C06A
:1005F0003AE501C032ED032EC0E0D0E032E017B39F
:100600001560C09A08B317BB55E020E84FEF20FFF4
:10061000052708BB279517951C3F28F70000455272
:10062000B0F720FF0527279508BB17951C3FB8F6A4
:1006300029913A9561F70A7F10918900110F08BB43
:10064000C250D04011F01093820010E41ABF016034
:1006500017B31A7F402F4A7F54E05A95F1F708BB31
:1006600017BB48BB7FCFFC0180818076803491F43A
:100670008181843041F0853051F0833059F482819A
:100680008093650007C082818093670003C08281E8
:100690008093690080E00895909164009F5F90933B
:1006A0006400992391F48091650080936600209105
:1006B0006700209368003091690030936A008111CF
:1006C000C19A2111C39A3111C49A8091660098177A
:1006D00009F4C19880916800981709F4C398809133
:1006E0006A00981709F4C49808952EE088E190E014
:1006F0000FB6F894A89581BD0FBE21BDE0DCB89A75
:1007000020E04DE150E104C0A895CA010197F1F73E
:100710002150D1F7B898B99ABB9ABC9A7894BCDFAB
:10072000A895FCDCFCCFDF92EF92FF920F931F9312
:10073000CF93DF93F89400E080E8D82EEE24FF24D6
:100740001D2D100F11BF19DEEC0189E0C433D8074D
:100750000CF0102FD6940894E11CF11C88E0E816E8
:10076000F10411F0012FECCF115011BF1F5FE12EEA
:10077000FF240894E11CF11C13C0FFDD9C012453ED
:10078000394037FF03C0309521953F4F2C173D0767
:1007900014F09E0101C011B781B78F5F81BFE901DD
:1007A00081B790E0E816F90644F711BF789461B775
:1007B00080E090E008D0DF91CF911F910F91FF90E2
:1007C000EF90DF900895262FE199FECF1CBA9FBBD2
:1007D0008EBB2DBB0FB6F894E29AE19A0FBE01963C
:0607E0000895F894FFCF1C
:0207E6005AFFB8
:00000001FF
